:100000000C9470010C9498010C9498010C94980134
:100010000C9498010C9498010C9498010C949801FC
:100020000C9498010C9498010C94BC120C948811B7
:100030000C9498010C9498010C9498010C949801DC
:100040000C9498010C9498010C9498010C949801CC
:100050000C9498010C9498010C9498010C948C0ABF
:100060000C9498010C943A030C94EF030C949F03A6
:100070000C9498010C9498010C9498010C9498019C
:100080000C9498010C9498010C9498010C9498018C
:100090000C9458090C9498010C9498010C949801B4
:1000A0000C9498010C9498010C9498019B0B9E0B56
:1000B0008D0B910B970BBF0BBF0BBF0BA20BA60BAE
:1000C000AA0BB00BB40BBF0BBA0B00000002000967
:1000D0000F0000030401000C0000000000000000FD
:1000E00000000000000000000408020110408040F1
:1000F000102040804080080204018040201002014E
:10010000108010204040040404040403040502028B
:1001100002020403020202020606060606060404A0
:1001200002020204000000002300260029002C0027
:100130002F0000000000250028002B002E003100B9
:1001400000000000240027002A002D003000080BCA
:100150000002020201000904000001020200000581
:1001600024001001052401010104240206052406CF
:1001700000010705810310004009040100020A0084
:10018000000007050202400000070583024000004E
:1001900000C18081C11201000202000040412336EB
:1001A0008000010102000112010002000000404134
:1001B00023368000010102000141726475696E6F8F
:1001C000204C4C430041726475696E6F204C656F22
:1001D0006E6172646F0004030904000000000000F7
:1001E00000002A2B28000000000000000000000092
:1001F000000000000000000000002C9EB4A0A1A29E
:10020000A434A6A7A5AE362D3738271E1F202122DD
:1002100023242526B333B62EB7B89F8485868788D6
:10022000898A8B8C8D8E8F909192939495969798C6
:10023000999A9B9C9D2F3130A3AD35040506070884
:10024000090A0B0C0D0E0F101112131415161718A6
:10025000191A1B1C1DAFB1B0B5000904020001033F
:100260000000000921010100012265000705840347
:1002700040000105010902A1010901A10085010554
:1002800009190129031500250195037501810295BE
:1002900001750581030501093009310938158125EA
:1002A0007F750895038106C0C005010906A1018577
:1002B00002050719E029E715002501750195088158
:1002C00002950175088103950675081500256505D9
:1002D00007190029658100C0280576081B0D6714E1
:1002E00011241FBECFEFDAE0DEBFCDBF15E0A0E0E6
:1002F000B1E0E4E6FEE202C005900D92AC31B10738
:10030000D9F728E0ACE1B5E001C01D92AE35B207E7
:10031000E1F712E0C0EED2E004C02297FE010E9495
:100320001617C83DD107C9F70E94390D0C94301734
:100330000C940000DC01ED91FC910190F081E02D26
:100340000994FC0160830895FF920F931F93CF934C
:10035000DF9300D0CDB7DEB7162FF52E032FFC01AB
:1003600060818EE297E02A8349830E945408E091DD
:100370002E07F0912F0784E0189FB00111246A5FC7
:100380007F4F0190F081E02D8EE297E00995498141
:10039000642F7F2D8EE297E00E949A016F2D70E00E
:1003A0008EE297E00E949A012A81622F702F8EE2DE
:1003B00097E00E949A01602F70E08EE297E00E9421
:1003C0009A018EE297E00F900F90DF91CF911F91ED
:1003D0000F91FF900C9473081F93CF93DF931F929C
:1003E000CDB7DEB7162FFC0160818EE297E049831E
:1003F0000E945408612F8EE297E00E94F80749811D
:10040000642F8EE297E00E94F8078EE297E00F904B
:10041000DF91CF911F910C94730840E060E00C9441
:10042000EC01CF93DF93EC018EE297E00E94370856
:10043000CE01DF91CF910C940D021F93CF93DF93E8
:10044000EC01162F68818EE297E00E945408612F1C
:100450008EE297E00E94F8078EE297E00E94730810
:1004600041E068818EE297E00E944E088EE297E0BC
:100470000E94A807DF91CF911F910895CF92DF923C
:10048000EF92FF921F93CF93DF93EC01CB01BA0160
:1004900026E636E646E65FE30E947F169B01AC0146
:1004A00060E27CEB8EEB95E40E94DD1420E030E00E
:1004B00040E85FE30E9474146B017C0164E171E029
:1004C00088EF97E00E948A0D22E030E0B701A60194
:1004D00088EF97E00E947A0F20E030E040E05FE391
:1004E000C701B6010E9475140E94B3150E944A15F7
:1004F000F62E6AE271E088EF97E00E948A0D4AE0EA
:1005000050E06F2D88EF97E00E94700E60E0CE0102
:100510000E941D02182F482F4F76406160E0CE01E7
:100520000E94EC014F2D6EEFCE010E94EC01412F95
:1005300060E0CE010E94EC0165E070E080E090E0B8
:100540000E94050B412F416A60E0CE01DF91CF91FF
:100550001F91FF90EF90DF90CF900C94EC01161656
:1005600017063CF4613082E078072CF060E072E01E
:1005700002C061E070E0FB01E35EFA4F8081089504
:100580000F931F930E94D60A00911E0710911F0718
:100590002091200730912107601B710B820B930B78
:1005A0001F910F9108951092C8009093CD008093F1
:1005B000CC006093CA000895CF93DF93EB011092B3
:1005C00026071092250710922407109223071092F5
:1005D00022070E94D60A60931E0770931F0780931C
:1005E00020079093210780E090E0FC01E35EFA4F42
:1005F00010820196813022E09207B9F7D093260746
:10060000C093250780912507909126070197B9F49B
:1006100061E082E00E94C00B61E082E00E94F90B81
:1006200088E48093C90066E289E090E00E94D302EA
:100630001092CE00109223071092220718C08091CA
:10064000250790912607029791F461E082E00E94CD
:10065000C00B60E082E00E94F90B80E98093C90042
:100660006EE083E090E0DF91CF910C94D302DF91B4
:10067000CF9108951F920F920FB60F9211242F93CE
:100680003F934F935F936F937F938F939F93AF931A
:10069000BF93EF93FF932091C8008091CE0090917B
:1006A000240724FF08C081E08093240710922307C9
:1006B0001092220733C09130B1F481112DC082E035
:1006C0008093240781E090E0909323078093220792
:1006D0000E94D60A60931E0770931F07809320071D
:1006E000909321071BC09230C9F4E0912207F0914A
:1006F0002307E35EFA4F80838091220790912307BE
:10070000019690932307809322078091220790916E
:1007100023078130924014F010922407FF91EF914B
:10072000BF91AF919F918F917F916F915F914F9109
:100730003F912F910F900FBE0F901F9018951F9211
:100740000F920FB60F9211242F933F934F935F9305
:100750006F937F938F939F93AF93BF93EF93FF9389
:100760008091250790912607019731F48091220707
:10077000909123070196B9F0809122079091230769
:10078000892BE1F46EE083E090E00E94D30288E2DE
:100790008093C9001092CE0081E090E090932307EF
:1007A000809322070BC066E289E090E00E94D302AA
:1007B0001092CE001092230710922207FF91EF9122
:1007C000BF91AF919F918F917F916F915F914F9169
:1007D0003F912F910F900FBE0F901F9018951F9271
:1007E0000F920FB60F9211242F933F938F939F93E5
:1007F000EF93FF9380912207909123079C012F5F35
:100800003F4F3093230720932207FC01E35EFA4F0A
:1008100080818093CE002091220730912307809120
:10082000000190910101821793074CF48FEF9FEF25
:10083000909323078093220788E48093C900FF9157
:10084000EF919F918F913F912F910F900FBE0F903D
:100850001F901895CF93C42FE82FF0E0EE0FFF1FE5
:10086000E056FE4F2081318140E050E08BE297E07E
:100870000E94A40120E030E040E050E06C2F8BE2C9
:1008800097E0CF910C94A401DC01ED91FC910190D3
:10089000F081E02D0994CF93DF93C82FD42F8035BA
:1008A00020F4DF91CF910C942A0420E030E040E066
:1008B00050E08BE297E00E94A401EC2FF0E0EE0FF5
:1008C000FF1FE052FD4F2081318140E050E06D2F4D
:1008D0008BE297E0DF91CF910C94A4014DE06CE0A6
:1008E00080E00E942A044DE06EE080E00E942A042D
:1008F00045E066E080E00E942A0443E064E080E096
:100900000E942A044DE06CE084E60E944B0464EFF0
:1009100070E080E090E00E94050B4DE06CE080E02C
:100920000E942A0445E066E084E60E944B0464EFDE
:1009300070E080E090E00E94050B45E066E080E01A
:100940000E942A0443E064E084E60E944B0464EFC2
:1009500070E080E090E00E94050B43E064E080E0FE
:100960000E942A044FE06EE084E60E944B0464EF8C
:1009700070E080E090E00E94050B4FE06EE080E0C8
:100980000C942A04EFEFF0E0E81BF109EE0FFF1FD3
:10099000E052FD4F2081318140E050E060E08BE289
:1009A00097E00C94A401EF92FF920F931F93CF93C3
:1009B000DF93E62E142FF22EC82FD0E0803588F476
:1009C000FE01EE0FFF1FE05CFD4F2081318140E012
:1009D00050E06AE08BE297E00E94A40120E030E062
:1009E00010C020E030E040E050E06AE08BE297E0A9
:1009F0000E94A401FE01EE0FFF1FE052FD4F208177
:100A0000318140E050E06BE08BE297E00E94A4016E
:100A10004DE06CE08E2D0E944B0445E066E0812F96
:100A20000E944B0443E064E08F2D0E944B044FE092
:100A30006EE0802F0E944B04812F6AE00E94E61630
:100A4000DF91CF911F910F91FF90EF900C94C20412
:100A5000CF9360E070E08EEE97E00E94850AC82F89
:100A600061E070E08EEE97E00E94850A2C2F30E066
:100A7000322F2227280F311D30932D0720932C076A
:100A800060E48BE297E0CF910C94A1011F93CF9388
:100A9000DF93609108017091090142E050E08EE21D
:100AA00097E00E9451088EE297E00E94A807182F55
:100AB0008EE297E00E94A807D12F90E0C92FC82BA3
:100AC00064E0D595C7956A95E1F7BE01882777FD63
:100AD0008095982F0E94781520E030E040E85DE393
:100AE0000E947F16609304017093050180930601B4
:100AF00090930701DF91CF911F9108958F929F925C
:100B0000AF92BF92CF92DF92EF92FF920F93CF936B
:100B1000DF9300D0CDB7DEB78091270790912807EB
:100B2000A0912907B0912A07AC01BD014F5F5F4F2B
:100B30006F4F7F4F409327075093280760932907F3
:100B400070932A0780369A4EA105B10508F490C02B
:100B50000E94460510922707109228071092290735
:100B600010922A0781E090910201911180E0809318
:100B700002016CE371E088EF97E00E948A0D6CE55A
:100B800071E088EF97E00E948A0D40910401509136
:100B90000501609106017091070122E030E088EFC5
:100BA00097E00E94780F69E571E088EF97E00E9476
:100BB0008A0D62E671E088EF97E00E948A0D84E07A
:100BC0000E942F0C892B19F46AE671E002C06FE6CF
:100BD00071E088EF97E00E948A0D65E771E088EF89
:100BE00097E00E948A0D60912C0770912D074AE0D2
:100BF00050E088EF97E00E94870E69E571E088EF8A
:100C000097E00E948A0D6CE771E088EF97E00E9400
:100C10008A0D4AE050E06091030188EF97E00E945E
:100C2000690E69E571E088EF97E00E948A0D61E83E
:100C300071E088EF97E00E948A0D60912C07709117
:100C40002D076F5F7F4F8CE195E00E94AF024AE075
:100C500050E0682F88EF97E00E94690E69E571E027
:100C600088EF97E00E948A0D88EF97E00E94930D2D
:100C70008CE195E00E94C0024B015C0100910301F0
:100C8000033009F4A1C0C0900401D0900501E090A8
:100C90000601F090070120E030E04CE552E4C70186
:100CA000B6010E947B16181614F4013061F020E0A2
:100CB00030E048E452E4C701B6010E947B161816E2
:100CC0004CF4023039F482E08093030104E120E027
:100CD00040E076C081E08093030188E8881683E1D4
:100CE0009806A104B10408F04DC0609127077091E7
:100CF00028078091290790912A0724E630E040E0F8
:100D000050E00E94F216672B682B692B09F05CC03B
:100D100060912C0770912D076C5F7F4F8CE195E0FF
:100D20000E94AF02082F60912C0770912D076D5F14
:100D30007F4F8CE195E00E94AF02282F60912C0735
:100D400070912D076E5F7F4F8CE195E02A830E94A2
:100D5000AF02482F60912C0770912D076F5F7F4F76
:100D60008CE195E049830E94AF02F82E60912C0738
:100D700070912D078CE195E00E94AF022A81498194
:100D80006F2D20C08CE195E00E94C002693873414C
:100D900081059105C8F0609127077091280780911F
:100DA000290790912A0724E630E040E050E00E94B5
:100DB000F216672B682B692B39F400E020E044E140
:100DC00060E080E00E94D30484E00E942F0C892B15
:100DD00009F047C06FEF71E08CE195E00E94AF022F
:100DE000082F60E072E08CE195E00E94AF02F82EDF
:100DF000202F30E0322F2227280F311D21153105F9
:100E000071F180910301813051F530932D072093CA
:100E10002C0765E871E088EF97E00E948A0D6091E9
:100E20002C0770912D074AE050E088EF97E00E9470
:100E3000870E68E971E088EF97E00E94A70D402FC8
:100E400060E070E08EEE97E00E94880A4F2D61E02E
:100E500070E08EEE97E00E94880A0E946E0483E0A4
:100E600001C081E0809303010F900F90DF91CF913B
:100E70000F91FF90EF90DF90CF90BF90AF909F9039
:100E80008F900895CF93C82F609108017091090148
:100E90008EE297E00E945E0861E070E08EE297E0EB
:100EA0000E9444046C2F70E069507109E5E0660F00
:100EB000771FEA95E1F78EE297E00E9444048EE204
:100EC00097E00E94730860910801709109018EE219
:100ED00097E00E945E0860E08EE297E00E94F807CB
:100EE0008EE297E0CF910C94730862E070E08CE1A1
:100EF00095E00E94DC028EE297E00E9437088CE0C9
:100F00000E94420740E855E260E070E088EF97E019
:100F10000E94150D6AE971E088EF97E00E94A70D25
:100F20008BE297E00E94110240E050E068EC72E42E
:100F30008BE297E00E943E028CE08093B800089517
:100F400080915E0790E020915F07821B91090895D0
:100F500020915F0780915E07281750F4E22FF0E0A0
:100F6000E05AF84F808190E02F5F20935F0708954B
:100F70008FEF9FEF0895E0915F0780915E07E8177C
:100F800030F4F0E0E05AF84F808190E008958FEF60
:100F90009FEF08950895CF92DF92EF92FF920F9303
:100FA0001F93CF93DF937C01CB018A0120913A07F5
:100FB000222389F0EB016B01C40ED51ECC15DD0593
:100FC00069F06991D701ED91FC910190F081E02DDC
:100FD000C7010995F3CF642F0E942F09C801DF9143
:100FE000CF911F910F91FF90EF90DF90CF900895D8
:100FF000CF93DF931F92CDB7DEB7698320913A0775
:101000002223D1F020913B07203240F021E030E054
:10101000FC013383228380E090E015C080913C077F
:10102000E82FF0E0E35CF84F998190838F5F809325
:101030003C0780933B0705C061E0CE0101960E940A
:101040002F0981E090E00F90DF91CF910895FC018E
:101050001382128248EE53E060E070E044835583CF
:101060006683778384EE94E0918380830895109261
:101070005F0710925E0710923C0710923B070C949A
:101080007A08862F413208F040E260E677E00E945D
:10109000980810925F0780935E07089521E00C94F2
:1010A000410821E00C94410881E080933A07609365
:1010B0005D0710923C0710923B0708950C9454086A
:1010C0000F93062F21E040913B076DE377E080917D
:1010D0005D070E94DC0810923C0710923B071092BB
:1010E0003A070F91089561E00C9460088EE297E052
:1010F0000C9427081092ED0781E08093EB07109283
:10110000EA0761E082E00E94F90B61E083E00E945F
:10111000F90BE9EBF0E080818E7F808380818D7F09
:10112000808388E48093B80085E48093BC000895B0
:10113000413208F03FC09091ED079111FCCF91E052
:101140009093ED072093EB072FEF209380071092E9
:10115000C507240F2093C4079093EC079091EC07E8
:10116000880F892B8093EC078091EA07813041F446
:101170001092EA078091EC078093BB0085EC01C0D8
:1011800085EE8093BC008091ED078130E1F3809182
:10119000C507841710F44091C50726EC37E0FB0122
:1011A000D9018A2F821B841718F48D918193F9CF6E
:1011B000842F089580E008950F93413208F046C0CF
:1011C0009091ED079111FCCF92E09093ED07009381
:1011D000EB079FEF909380071092C5074093C407D9
:1011E000FB0166EC77E0DB019A2F961B941718F44D
:1011F00091919D93F9CF1092EC079091EC07880F95
:10120000892B8093EC078091EA07813041F410929A
:10121000EA078091EC078093BB0085EC01C085EE66
:101220008093BC00222321F08091ED078230E1F30E
:10123000809180078F3F61F080918007803251F06C
:1012400080918007803341F483E007C081E005C0CE
:1012500080E003C082E001C084E00F910895613214
:1012600098F42091ED07243089F46093A207FC01E3
:1012700084EA97E0DC012A2F281B261718F4219115
:101280002D93F9CF80E0089581E0089582E00895DC
:1012900085ED8093BC008091BC0084FDFCCF109252
:1012A000ED07089585EC8093BC001092ED0708953A
:1012B0001F920F920FB60F9211242F933F934F93CB
:1012C0005F936F937F938F939F93AF93BF93EF93AE
:1012D000FF938091B900887F803609F49CC068F53F
:1012E000883209F45BC090F4803109F454C038F4BA
:1012F000882309F4F5C0883009F44DC0F5C0883161
:1013000009F44CC0803209F45DC0EEC0803409F4A9
:1013100068C048F4803309F455C0883309F0E4C04C
:1013200080938007A8C0803509F44FC0883509F440
:101330005DC0883409F0D8C0D5C0883909F4C6C06A
:10134000A8F4883709F467C038F4883609F463C014
:10135000803709F460C0C8C0883809F4B7C0803944
:1013600009F45FC0803809F0BFC05BC0803B09F45E
:1013700085C038F4803A09F466C0883A09F47EC022
:10138000B3C0803C09F4A6C0883C09F4A3C0883BE4
:1013900009F489C0A9C08091EC0710C09091C507DD
:1013A0008091C407981770F5E091C50781E08E0F12
:1013B0008093C507F0E0EA53F84F80818093BB002B
:1013C00085EC85C0809380078DC0E091C50781E0E2
:1013D0008E0F8093C5078091BB00F0E0EA53F84F71
:1013E00080839091C5078091C4076DC0E091C507C7
:1013F00081E08E0F8093C5078091BB00F0E0EA5337
:10140000F84F80838091EB0781116CC081E080935D
:10141000EA0784EA60C083E08093ED0710928107B9
:10142000CFCF80918107803208F050C0E0918107D2
:1014300081E08E0F809381078091BB00F0E0EE5732
:10144000F84F8083BDCF80918107803230F4E091E6
:101450008107F0E0EE57F84F10820E944809609132
:10146000810770E0E091E607F091E70782E897E0F6
:101470000995109281070E94520936C084E080933A
:10148000ED071092A3071092A207E091E807F091F0
:10149000E90709958091A207811105C081E0809339
:1014A000A2071092A407E091A30781E08E0F80931A
:1014B000A307F0E0EC55F84F80818093BB0090913A
:1014C000A3078091A207981708F47ACF85E8809344
:1014D000BC000AC085EC8093BC001092ED0704C0EC
:1014E000109280070E944809FF91EF91BF91AF9140
:1014F0009F918F917F916F915F914F913F912F912C
:101500000F900FBE0F901F901895CB010C941A17D7
:10151000CB01642F0C9422171F920F920FB60F92DB
:1015200011242F933F938F939F93AF93BF938091F9
:10153000F0079091F107A091F207B091F307309175
:10154000EF0723E0230F2D3720F40196A11DB11DD5
:1015500005C026E8230F0296A11DB11D2093EF07B9
:101560008093F0079093F107A093F207B093F307ED
:101570008091F4079091F507A091F607B091F707D5
:101580000196A11DB11D8093F4079093F507A093D8
:10159000F607B093F707BF91AF919F918F913F915D
:1015A0002F910F900FBE0F901F9018952FB7F894A2
:1015B0006091F0077091F1078091F2079091F30725
:1015C0002FBF08953FB7F8948091F4079091F507E5
:1015D000A091F607B091F70726B5A89B05C02F3F4D
:1015E00019F00196A11DB11D3FBF6627782F892FE5
:1015F0009A2F620F711D811D911D42E0660F771FAA
:10160000881F991F4A95D1F70895CF92DF92EF92E4
:10161000FF92CF93DF936B017C010E94E20AEB0102
:10162000C114D104E104F10489F00E9430130E9436
:10163000E20A6C1B7D0B683E734090F381E0C81A90
:10164000D108E108F108C851DC4FEACFDF91CF9112
:10165000FF90EF90DF90CF900895789484B58260EA
:1016600084BD84B5816084BD85B5826085BD85B546
:10167000816085BDEEE6F0E0808181608083E1E8F5
:10168000F0E010828081826080838081816080832D
:10169000E0E8F0E0808181608083E1E9F0E0808132
:1016A00082608083808181608083E0E9F0E08081D6
:1016B00081608083E1ECF0E08081846080838081C0
:1016C00082608083808181608083E3ECF0E08081B0
:1016D00081608083E0ECF0E0808182608083E2ECD6
:1016E000F0E0808181608083EAE7F0E080818460BF
:1016F000808380818260808380818160808380811B
:1017000080688083089590E0FC013197EF30F10507
:10171000B0F5EA5AFF4F0C941417809180008F7730
:1017200003C0809180008F7D809380000895809118
:101730008000877FF9CF84B58F7702C084B58F7D15
:1017400084BD0895809190008F7707C080919000AC
:101750008F7D03C080919000877F809390000895D3
:101760008091C0008F7703C08091C0008F7D8093EF
:10177000C00008958091C200877F8093C2000895C1
:10178000CF93DF9390E0FC01E851FF4F2491FC01DF
:10179000EA5FFE4F8491882349F190E0880F991FFA
:1017A000FC01E05CFE4FA591B4918E5C9E4FFC0164
:1017B000C591D4919FB7611108C0F8948C91209580
:1017C00082238C93888182230AC0623051F4F8947A
:1017D0008C91322F309583238C938881822B888340
:1017E00004C0F8948C91822B8C939FBFDF91CF9192
:1017F00008950F931F93CF93DF931F92CDB7DEB75A
:10180000282F30E0F901E653FF4F8491F901E851A8
:10181000FF4F1491F901EA5FFE4F04910023C9F0D4
:10182000882321F069830E94830B6981E02FF0E017
:10183000EE0FFF1FEE5CFE4FA591B4919FB7F89499
:101840008C91611103C01095812301C0812B8C9371
:101850009FBF0F90DF91CF911F910F910895CF936C
:10186000DF93282F30E0F901E653FF4F8491F9010F
:10187000E851FF4FD491F901EA5FFE4FC491CC23A8
:1018800091F081110E94830BEC2FF0E0EE0FFF1F0F
:10189000EC5DFE4FA591B4912C912D2381E090E059
:1018A00021F480E002C080E090E0DF91CF910895C4
:1018B000CF93DF931F92CDB7DEB76983DC01ED9143
:1018C000FC910280F381E02D41E050E0BE016F5FAA
:1018D0007F4F09950F90DF91CF910895CF93DF93BC
:1018E000EC018C859D8597FF05C082E00E945D100C
:1018F0009D878C878C859D85DF91CF91089583E0AE
:101900000C94B212FC018485958597FD06C082E097
:101910000E94051090E00196089582E00E94051053
:1019200090E00895FC018485958597FD05C02FEF13
:101930003FEF35872487089582E00C945D10CF93A4
:10194000DF93EC0180911101882331F083E00E9444
:101950008E101816190634F081E090E09B838A837C
:1019600080E090E0DF91CF910895FC0120812E5F0F
:10197000208342E450E06EE471E080E80C94291189
:10198000FC0181819081913A59F4813209F03CC087
:1019900047E050E06AE071E080E00E94291143C016
:1019A000913291F5803239F467E070E08AE091E09D
:1019B0000E945A1106C0823209F035C0828180939C
:1019C000110180910A0190910B01A0910C01B0913D
:1019D0000D01803B9440A105B105C1F48091110136
:1019E00080FD14C087E797E7909301088093000873
:1019F0002BE088E190E00FB6F894A8958093600002
:101A00000FBE209360000FC080E0089588E10FB6FC
:101A1000F89480936000109260000FBEA895109219
:101A200001081092000881E008952FEF3FEFFC01BC
:101A30003587248708951092FB071092FA0788EEE5
:101A400093E0A0E0B0E08093FC079093FD07A093A3
:101A5000FE07B093FF0784EF94E09093F90780931B
:101A6000F8078FEF9FEF909305088093040808957F
:101A700008950E942D0B0E94380D88E498E00E9482
:101A800012130E947507C0E0D0E00E947E052097E7
:101A9000E1F30E940000F9CFCF92DF92EF92FF9224
:101AA0000F931F93CF93DF936C017A01EB01E60E46
:101AB000F71E00E010E0CE15DF0561F06991D60158
:101AC000ED91FC910190F081E02DC6010995080F80
:101AD000191FF1CFC801DF91CF911F910F91FF9096
:101AE000EF90DF90CF9008956115710581F0DB01D3
:101AF0000D900020E9F7AD0141505109461B570BED
:101B0000DC01ED91FC910280F381E02D099480E0ED
:101B100090E008950C94740DDC01ED91FC9101901E
:101B2000F081E02D09940F931F93CF93DF93EC0185
:101B30006DE00E948C0D8C016AE0CE010E948C0D3C
:101B4000800F911FDF91CF911F910F9108950F93F7
:101B50001F93CF93DF93EC010E94740D8C01CE0193
:101B60000E94930D800F911FDF91CF911F910F91D4
:101B700008958F929F92AF92BF92CF92DF92EF9291
:101B8000FF920F931F93CF93DF93CDB7DEB7A1974B
:101B90000FB6F894DEBF0FBECDBF7C01C42EE52F7B
:101BA000CB01D22E19A221E02D1510F02AE0D22E61
:101BB0008E010F5D1F4F8D2C912CA12CB12C6C2D03
:101BC0007E2FA50194010E94F2168C2DD29E8019C1
:101BD0001124015011098A3014F4805D01C0895C20
:101BE000F8018083211531054105510521F0C22EF0
:101BF000E32FCA01E4CFB801C7010E94740DA1967A
:101C00000FB6F894DEBF0FBECDBFDF91CF911F910D
:101C10000F91FF90EF90DF90CF90BF90AF909F908B
:101C20008F900895CF92DF92EF92FF920F931F93C0
:101C3000CF93DF93EC016A017B012115310579F423
:101C4000E881F9810190F081E02D642FDF91CF913F
:101C50001F910F91FF90EF90DF90CF9009942A3061
:101C60003105E9F477FF1AC06DE20E948C0D8C01FA
:101C700044275527BA014C195D096E097F092AE0EE
:101C8000CE010E94B90D800F911FDF91CF911F915E
:101C90000F91FF90EF90DF90CF9008952AE0B70169
:101CA000A601CE01DF91CF911F910F91FF90EF9090
:101CB000DF90CF900C94B90D2115310541F4DC0172
:101CC000ED91FC910190F081E02D642F09940C942A
:101CD000B90D9A01462F50E060E070E00C945C0E64
:101CE0000F931F93CF93DF93EC019A01462F50E09F
:101CF00060E070E00E945C0E8C01CE010E94930DAA
:101D0000800F911FDF91CF911F910F9108959A013C
:101D1000AB0160E070E00C945C0E4F925F926F92AA
:101D20007F928F929F92AF92BF92CF92DF92EF926B
:101D3000FF920F931F93CF93DF93EC016A017B0116
:101D4000B22E9A01AB01C701B6010E94E2168823A8
:101D500019F060E075E027C026013701E89477F8B4
:101D60002FEF3FEF4FE75FE7C301B2010E94E2169A
:101D700081110DC02FEF3FEF4FE75FE7C301B201C5
:101D80000E94D91418161CF464E075E00CC02FEF03
:101D90003FEF4FE75FE4C701B6010E947B161816BC
:101DA000ACF468E075E0CE01DF91CF911F910F9107
:101DB000FF90EF90DF90CF90BF90AF909F908F906B
:101DC0007F906F905F904F900C94740D2FEF3FEFCA
:101DD0004FE75FECC701B6010E94D91487FDE1CF40
:101DE00020E030E0A901C701B6010E94D91487FFA5
:101DF0000AC06DE2CE010E948C0D8C01F7FAF094BE
:101E0000F7F8F09402C000E010E0A12C60E070E070
:101E100080E09FE3AB1441F020E030E040E251E489
:101E20000E94DD14A394F6CF9B01AC01C701B6015B
:101E30000E9475146B017C010E944A152B013C0124
:101E40000E9476159B01AC01C701B6010E94741473
:101E50006B017C012AE0B301A201CE010E94B90D01
:101E6000080F191FBB2039F06CE075E0CE010E940D
:101E7000740D080F191F7B2C772041F120E030E012
:101E800040E251E4C701B6010E947F166B017C015C
:101E90000E9445154B01AA2497FCA094BA2C2AE075
:101EA00030E0B501A401CE010E94120E080F191FE7
:101EB000C501B4010E9478159B01AC01C701B601B0
:101EC0000E9474146B017C017A94D6CFC801DF9113
:101ED000CF911F910F91FF90EF90DF90CF90BF9027
:101EE000AF909F908F907F906F905F904F900895EC
:101EF0000C948D0E0F931F93CF93DF93EC010E94F0
:101F00008D0E8C01CE010E94930D800F911FDF91E9
:101F1000CF911F910F91089540914C0850914D0819
:101F200020914A0830914B0842175307B4F490911E
:101F3000E8009570E1F39091E80092FD19C080935C
:101F4000F10080914C0890914D0801968F7399276C
:101F5000892B19F48EEF8093E80080914C089091C2
:101F60004D08019690934D0880934C0881E00895A8
:101F700080E00895CF92DF92FF920F931F93CF934B
:101F8000DF931F92CDB7DEB7082F162F862F880F4D
:101F90008E5F99830E948C0F83E00E948C0FF02E3D
:101FA000C02E9981D92E8C2D8F19811778F4F601C6
:101FB00084910E948C0F082F80E00E948C0F802358
:101FC000FFEFCF1ADF0A8111EECF01C081E00F9041
:101FD000DF91CF911F910F91FF90DF90CF900895E7
:101FE000615030F02091F100FC0120830196F8CF80
:101FF000289884E680934F0808952FB7FC0120832A
:10200000F89467706093E9000895CF93DF931F926F
:10201000CDB7DEB7682FCE0101960E94FD0F8091EB
:10202000F20099819FBF0F90DF91CF910895FF92A9
:102030000F931F93CF93DF9300D0CDB7DEB7F62E6B
:102040008A0190914E08992311F057FF03C08FEF3A
:102050009FEF2BC0682FCE0101967A830E94FD0F5F
:102060008091F20090E0A8017A81801791070CF42A
:10207000AC01EF2DF72FF40E84E6FE1639F0289808
:1020800080934F089091F1009193F7CF411551053E
:1020900021F08091F200882321F089818FBFCA014D
:1020A00004C08BE68093E800F8CF0F900F90DF918B
:1020B000CF911F910F91FF900895CF93DF931F92BF
:1020C000CDB7DEB741E050E0BE016F5F7F4F0E94A9
:1020D0001710019719F4898190E002C08FEF9FEFEC
:1020E0000F90DF91CF910895CF93DF931F92CDB7DB
:1020F000DEB7682FCE0101960E94FD0F9091E80097
:10210000892F807295FF04C09091F20080E4891BB2
:1021100099819FBF0F90DF91CF9108956F927F9229
:102120008F929F92AF92BF92CF92DF92EF92FF92E7
:102130000F931F93CF93DF931F92CDB7DEB7782E07
:102140007B01C42EB52E80914E08882369F0042FA0
:10215000152F8AEFD82E872D8072982E9AE3A92EFC
:10216000872D8074882E11C08FEF9FEF57C0872D69
:102170000E947410682E81110CC0DA94A9F361E0FA
:1021800070E080E090E00E94050B0115110579F7E1
:102190003BC0282F30E0021713070CF4602E672D88
:1021A000CE0101960E94FD0F8091E80085FF29C0B5
:1021B000262D30E0021B130B992039F06A948FEF23
:1021C0006816B1F01092F100F9CFF701862D77FE75
:1021D00007C0815058F094919093F1003196F9CF57
:1021E000815020F091919093F100FACFE20EF31E0E
:1021F0008091E80085FF0FC00115110511F48110D1
:102200000AC089818FBFC1CF5D9884E68093500852
:102210008C2D9B2D03C0A092E800F3CF0F90DF918F
:10222000CF911F910F91FF90EF90DF90CF90BF90D3
:10223000AF909F908F907F906F9008951092E900DB
:1022400010924D0810924C0890934B0880934A08C6
:102250000895CF92DF92FF920F931F93CF93DF9356
:1022600000D0CDB7DEB7F82E8A016B01011511053C
:10227000B1F0F601F7FE02C0849101C0808149836C
:102280005A830E948C0F01501109FFEFCF1ADF0A09
:1022900049815A818111EACF8FEF9FEF01C0CA01B6
:1022A0000F900F90DF91CF911F910F91FF90DF90D2
:1022B000CF9008951F93CF93DF931F92CDB7DEB7D2
:1022C000162F2091E80022FFFCCF612F79830E9416
:1022D000F00F8BEF8093E800812F7981972F0F907B
:1022E000DF91CF911F910895CF93DF931F92CDB7C8
:1022F000DEB71982CE0101960E94B50CCE0101967F
:102300000E944F13898190E00F90DF91CF91089543
:102310001F920F920FB60F921124EF92FF920F931C
:102320001F932F933F934F935F936F937F938F935D
:102330009F93AF93BF93EF93FF93CF93DF93CDB76B
:10234000DEB76297DEBFCDBF1092E9008091E80052
:1023500083FFEBC068E0CE010A960E94F00F82EF87
:102360008093E8009A8597FF05C08091E80080FF80
:10237000FCCF03C08EEF8093E800892F807609F0B0
:10238000B9C08B85811105C01092F1001092F10047
:10239000C5C0282F2D7F213009F4C0C0853049F4F5
:1023A0008091E80080FFFCCF8C8580688093E300FB
:1023B000B5C0863009F076C02D85E888F9882230CE
:1023C00071F580E090E02A8B0E941E110E9474112A
:1023D00099E08E010F5F1F4FF801392F11923A9546
:1023E000E9F799832A892A8391E09E8390E8988768
:1023F0009AEF998720914C0830914D08275F3F4F05
:102400003C832B838D83C7010E941E1149E050E05D
:10241000B80180E00E9429110E9474117FC0C70199
:102420002A8B0E941E112A89223241F482E290E016
:102430000E945A13892B09F071C074C0213069F4CD
:1024400088899989089711F420934908809149084F
:10245000811118C067EA71E01AC0233009F062C028
:102460008C85882391F0823021F460E185EC91E045
:1024700006C0813009F056C06BE089EB91E00E9404
:10248000BA0F4AC065E971E002C066ED71E06115FE
:10249000710509F447C0FB01449150E080E80E94B7
:1024A00029113CC0873009F43DC0883021F481E017
:1024B0008093F10033C0893089F5937099F5E1E993
:1024C000F1E081E021E096E38093E9002093EB00C6
:1024D00034913093EC009093ED008F5F319685300E
:1024E00099F78EE78093EA001092EA008C8580933A
:1024F0004E0814C0888999890E941E118E85811109
:1025000005C0CE010A960E94C00C06C0823051F46C
:10251000CE010A960E948213882321F08EEF8093C9
:10252000E80003C081E28093EB0062960FB6F89456
:10253000DEBF0FBECDBFDF91CF91FF91EF91BF9175
:10254000AF919F918F917F916F915F914F913F914B
:102550002F911F910F91FF90EF900F900FBE0F9052
:102560001F9018958093E9008091F200882319F05C
:102570008AE38093E80008951F920F920FB60F929E
:1025800011242F933F934F935F936F937F938F9378
:102590009F93AF93BF93EF93FF938091E1001092CD
:1025A000E10083FF0FC01092E90091E09093EB00EF
:1025B0001092EC0092E39093ED0010924E0898E098
:1025C0009093F00082FF1DC083E00E94B2128091C0
:1025D0005008882339F0809150088150809350082A
:1025E000882369F080914F08882359F080914F0823
:1025F000815080934F08811104C0289A02C05D9ACF
:10260000F1CFFF91EF91BF91AF919F918F917F910A
:102610006F915F914F913F912F910F900FBE0F904F
:102620001F90189510924E0881E08093D70080EAA1
:102630008093D80082E189BD09B400FEFDCF61E03E
:1026400070E080E090E00E94050B80E98093D80064
:102650008CE08093E2001092E000559A209A089551
:102660000895FF920F931F93CF93DF93EC01F62E03
:10267000E881F9810480F581E02D09958C01E881DC
:10268000F9810680F781E02D6F2DCE010995C801F3
:102690009927DF91CF911F910F91FF900895FC0131
:1026A00020812F5F208349E150E06AE572E080E8F5
:1026B0000C94291145E650E063E772E080E80C9441
:1026C0002911EF92FF920F931F93CF93DF931F92E5
:1026D000CDB7DEB789838B017A0141E050E0BE01BE
:1026E0006F5F7F4F84E00E948E10A701B80184E4E1
:1026F0000E948E100F90DF91CF911F910F91FF904C
:10270000EF900895FC0191818081813A31F481E05C
:10271000913091F0933089F411C0813271F49B3083
:1027200021F482818093130105C09A3031F48281B3
:102730008093120181E00895089580E0089548E0B3
:1027400050E082E00C946113CF93DF93DC01683892
:1027500018F0E8E7E60F25C0E62FF0E067FF11C0AC
:10276000E058F10981E090E001C0880FEA95EAF7AE
:1027700014969C911497982B14969C931497E0E0D0
:1027800010C0E652FE4FE491EE2309F440C0E7FF8B
:1027900008C014968C911497826014968C931497A9
:1027A000EF7716968C9116978E1741F117968C91AC
:1027B00017978E1719F118968C9118978E17F1F0BC
:1027C00019968C9119978E17C9F01A968C911A97B1
:1027D0008E17A1F01B968C911B978E1779F080E0D5
:1027E00090E0ED01C80FD91F2E81211102C0EE83A8
:1027F00005C0019686309105A1F709C0BD016C5F47
:102800007F4FCD010E949F1381E090E008C081E0DE
:1028100090E013969C938E93129780E090E0DF9166
:10282000CF910895683818F0E8E7E60F25C0E62F45
:10283000F0E067FF12C0E058F10921E030E001C08C
:10284000220FEA95EAF72095DC0114963C91149743
:10285000322314963C93E0E00FC0E652FE4FE49121
:10286000EE2329F1E7FF08C0DC0114962C911497A0
:102870002D7F14962C93EF7720E030E0EE2351F07B
:10288000DC01A20FB31F16964C9116974E1302C08F
:1028900016961C922F5F3F4F2630310579F7BC0109
:1028A0006C5F7F4F0E949F1381E090E0089580E06D
:1028B00090E00895FC011682178210861186128618
:1028C00013861482BC016C5F7F4F0C949F1310928F
:1028D0005D08109254081092530882E195E090939D
:1028E00052088093510808955058BB27AA270ED04C
:1028F000B1C1A2D130F0A7D120F031F49F3F11F443
:102900001EF497C10EF4E095E7FB64C1E92FB3D143
:1029100080F3BA17620773078407950718F071F4FC
:102920009EF5E2C10EF4E0950B2EBA2FA02D0B01FF
:10293000B90190010C01CA01A0011124FF27591B04
:1029400099F0593F50F4503E68F11A16F040A22F0A
:10295000232F342F4427585FF3CF4695379527957B
:10296000A795F0405395C9F77EF41F16BA0B620B7A
:10297000730B840BBAF09150A1F0FF0FBB1F661FC1
:10298000771F881FC2F70EC0BA0F621F731F841F04
:1029900048F4879577956795B795F7959E3F08F02A
:1029A000B3CF9395880F08F09927EE0F97958795E9
:1029B0000895ECD008F481E008950CD04BC143D1C8
:1029C00040F03AD130F021F45F3F19F003C15111CA
:1029D0008CC12FC150D198F39923C9F35523B1F37A
:1029E000951B550BBB27AA2762177307840738F07E
:1029F0009F5F5F4F220F331F441FAA1FA9F333D0DD
:102A00000E2E3AF0E0E830D091505040E695001C90
:102A1000CAF729D0FE2F27D0660F771F881FBB1F4C
:102A2000261737074807AB07B0E809F0BB0B802D26
:102A3000BF01FF2793585F4F2AF09E3F510568F072
:102A4000C9C053C15F3FECF3983EDCF386957795A0
:102A50006795B795F7959F5FC9F7880F911D969574
:102A6000879597F90895E1E0660F771F881FBB1FD0
:102A7000621773078407BA0720F0621B730B840B7D
:102A8000BA0BEE1F88F7E095089504D06894B11151
:102A90002CC10895F8D088F09F5790F0B92F99274E
:102AA000B751A0F0D1F0660F771F881F991F1AF059
:102AB000BA95C9F712C0B13081F016D1B1E00895CE
:102AC00013C1672F782F8827B85F39F0B93FCCF34F
:102AD000869577956795B395D9F73EF4909580954F
:102AE000709561957F4F8F4F9F4F0895E89409C06F
:102AF00097FB3EF490958095709561957F4F8F4F31
:102B00009F4F9923A9F0F92F96E9BB279395F69546
:102B1000879577956795B795F111F8CFFAF4BB0FC4
:102B200011F460FF1BC06F5F7F4F8F4F9F4F16C028
:102B3000882311F096E911C0772321F09EE8872FB2
:102B4000762F05C0662371F096E8862F70E060E06E
:102B50002AF09A95660F771F881FDAF7880F9695E7
:102B6000879597F90895A9D080F09F3740F4911187
:102B70000EF0BBC060E070E080E89FEB089526F4A3
:102B80001B16611D711D811D2BC045C0990F0008CA
:102B9000550FAA0BE0E8FEEF16161706E807F9072F
:102BA000C0F012161306E407F50798F0621B730BCA
:102BB000840B950B39F40A2661F0232B242B252B4B
:102BC00021F408950A2609F4A140A6958FEF811DEE
:102BD000811D089597F99F6780E870E060E008958F
:102BE000882371F4772321F09850872B762F07C024
:102BF000662311F499270DC09051862B70E060E098
:102C00002AF09A95660F771F881FDAF7880F969536
:102C1000879597F908959F3F31F0915020F487955B
:102C200077956795B795880F911D9695879597F934
:102C300008959FEF80EC089500240A941616170655
:102C400018060906089500240A941216130614069D
:102C500005060895092E0394000C11F4882352F000
:102C6000BB0F40F4BF2B11F460FF04C06F5F7F4FB8
:102C70008F4F9F4F089557FD9058440F551F59F09F
:102C80005F3F71F04795880F97FB991F61F09F3F59
:102C900079F087950895121613061406551FF2CF82
:102CA0004695F1DF08C0161617061806991FF1CFD2
:102CB00086957105610508940895E5DFA0F0BEE7EB
:102CC000B91788F4BB279F3860F41616B11D672F1B
:102CD000782F8827985FF7CF869577956795B11DF0
:102CE00093959639C8F30895E894BB27662777270C
:102CF000CB0197F908954ADF08F48FEF08950BD0C0
:102D0000A9CF9ADF28F09FDF18F0952309F062CF52
:102D100090CF1124EACFAFDFA0F3959FD1F3950FA9
:102D200050E0551F629FF001729FBB27F00DB11D4F
:102D3000639FAA27F00DB11DAA1F649F6627B00DDF
:102D4000A11D661F829F2227B00DA11D621F739FC8
:102D5000B00DA11D621F839FA00D611D221F749FD6
:102D60003327A00D611D231F849F600D211D822F1D
:102D7000762F6A2F11249F5750408AF0E1F0882364
:102D80004AF0EE0FFF1FBB1F661F771F881F915071
:102D90005040A9F79E3F510570F01CCFA6CF5F3F72
:102DA000ECF3983EDCF3869577956795B795F795A4
:102DB000E7959F5FC1F7FE2B880F911D969587952C
:102DC00097F90895E3DE880B990B0895991B79E034
:102DD00004C0991F961708F0961B881F7A95C9F7AB
:102DE00080950895A1E21A2EAA1BBB1BFD010DC000
:102DF000AA1FBB1FEE1FFF1FA217B307E407F507AB
:102E000020F0A21BB30BE40BF50B661F771F881F86
:102E1000991F1A9469F760957095809590959B011C
:102E2000AC01BD01CF010895EE0FFF1F0590F49195
:102E3000E02D0994F999FECF92BD81BDF89A9927AA
:102E400080B50895262FF999FECF1FBA92BD81BD96
:102E500020BD0FB6F894FA9AF99A0FBE019608951C
:042E6000F894FFCF14
:102E6400200001010000A041480000E10000000032
:102E740000000101457374696D61746564207072AA
:102E8400652D7363616C653A200046696E616C2040
:102E94007072652D7363616C653A20005665725BD0
:102EA400312E3030205365702020322032303135BD
:102EB4002032323A31363A33305D200054656D7039
:102EC4005B00427574746F6E5B004F4E205D004F63
:102ED40046465D200020416464725B002053745BAD
:102EE4000020585B00536F7265206E657720616423
:102EF4006472657373202800290048656C6C6F0048
:102F040000000100020003000400050006000700A1
:102F1400080009000A000A000B000B000C000D0059
:102F24000D000E000F000F0010001100120012001F
:102F34001300140015001600170019001A001B00D6
:102F44001C001E001F002000220024002500270072
:102F540029002B002D002F003100340036003900E9
:102F64003B003E004100440048004B004F0052002B
:102F740056005A005F00630068006D00720077001D
:102F84007D00830089008F0096009D00A500AC00A1
:102F9400B400BD00C600CF00D900E300EE00F90084
:102FA4000000050007000A000C000D000E000F00D1
:102FB4001000110012001300140015001600170071
:102FC40019001A001C001E001F0021002300250008
:102FD40027002A002C002F003200340038003B0068
:102FE4003E00420046004A004E00530058005D0077
:102FF400620068006E0075007B0083008A00920006
:103004009B00A400AE00B800C300CE00DA00E700C5
:10301400F4000201120122013201440157016B0143
:1030240081019701AF01C801E301FF011D023C02C8
:103034005E028102A602CE02F80224035303850332
:10304400000000000000000000000000000000007C
:10305400000000000000000000000000000000006C
:10306400000000000000000000000000000000005C
:10307400000000000000000000000000000000004C
:10308400000000000000000000000000000000003C
:10309400000000000000000000000000000000002C
:1030A400000000000000000000000000000000001C
:1030B400000000000000000000000000000000000C
:1030C40000000000000000000000000000000000FC
:1030D40000000000000000000000010001000100E9
:1030E4001000120014001500160016001700180036
:1030F400190019001A001B001C001D001E001F00EF
:10310400200021002200230024002500260028009E
:1031140029002A002B002D002E003000310033003E
:103124003400360038003A003B003D003F004100C7
:103134004300450048004A004C004F005100540031
:10314400560059005C005F006200650068006B0077
:103154006F00720076007A007D00810086008A008C
:103164008E00930097009C00A100A600AB00B10064
:10317400B600BC00C200C800CE00D500DC00E300ED
:10318400EA00F100F9000001090111011A0122010C
:103194002C0135013F01490153015E0169017401AC
:1031A40080018C019901A501B301C001CF01DD01AA
:1031B400EC01FC010C021C022D023F0251026402CC
:1031C40077028B029F02B402CA02E102F8021003E2
:1031D400290342035C0378039303B003CE03ED0396
:1031E4000C042D044F0471049504BA04E00408058A
:1031F40030055A058505B205E0050F06400672063E
:10320400A606DC0613074C078707C4070208430811
:103214008608CA0811095A09A609F309440A960A34
:10322400EC0A440B9F0BFC0B5D0CC00C270D910D9D
:10323400FF0D6F0EE40E5C0FB40FB40FB40FFF0F4D
:1032440000000000F807CB07A007A807BB07CA07C0
:1032540000000000580C9F0C820C920C6E0C7F0C2A
:103264006E616E00696E66006F7666002E00000067
:0C327400000031134C0DA41312145A1466
:00000001FF
